:1000000007C1000033C1000031C100002FC1000052
:100010002DC100002BC1000029C1000027C1000034
:1000200025C1000023C1000021C100001FC1000044
:100030001DC100001BC1000019C1000017C1000054
:1000400015C1000013C1000011C100000FC1000064
:100050000DC100000BC1000009C10000B2C30000C7
:1000600005C1000003C1000001C10000FFC0000085
:10007000FDC00000FBC00000F9C00000F7C0000098
:10008000F5C00000F3C00000F1C00000EFC00000A8
:10009000EDC00000EBC00000E9C00000E7C00000B8
:1000A000E5C00000E3C0000003C10000DFC00000A5
:1000B000DDC00000DBC00000D9C00000D7C00000D8
:1000C000D5C00000D3C00000D1C00000CFC00000E8
:1000D000CDC00000CBC00000C9C00000C7C00000F8
:1000E000C5C0000050045304420446044C048A0472
:1000F00057045B046104650469046F0473047704A6
:100100008A047D048104850400000A0B02090C0D99
:100110000E080703040100000000000000000000BA
:1001200000000000000000000000000000000000CF
:10013000000000001211100000000000000000008C
:1001400000000000000000000000000000000102AC
:1001500010202008081020401020408002010201D9
:100160000804020101020408102040808040201091
:1001700008040201800402018040201008040201EA
:100180000804020101020408102040800102040852
:10019000102040800505050507050808080802022B
:1001A00002020A0A08080404040401010101010111
:1001B00001010303030303030303040707070C0CF4
:1001C0000C0C0C0C0C0C02020202060606060606BB
:1001D00006060B0B0B0B0B0B0B0B00002200250074
:1001E00028002B002E003100340002010000050120
:1001F00008010B0100002100240027002A002D0027
:100200003000330001010000040107010A019E01D2
:1002100011241FBECFEFD1E2DEBFCDBF00E00CBF87
:1002200012E0A0E0B2E0E2E4FAE000E00BBF02C0BE
:1002300007900D92AC30B107D9F722E0ACE0B2E004
:1002400001C01D92AF32B207E1F711E0C8E0D1E082
:1002500000E005C021970109802FFE01E8D3C730D7
:10026000D10780E00807B1F767D0E9C3C9CE109283
:10027000A000E1EAF0E010828081886080838081C4
:100280008460808381E792E09093A9008093A80026
:10029000E2E7F0E08081826080831092A5001092F6
:1002A000A4008FEF80930A0110920B0178940895B7
:1002B0001F920F920FB60F9211240BB60F922F932D
:1002C0003F934F935F936F937F938F939F93AF93DE
:1002D000BF93CF93DF93EF93FF93CBE0D1E088817F
:1002E000809588838EE092E0AFD160910C0270918E
:1002F0000D026F5F7F4F70930D0260930C024AE016
:1003000050E08EE092E002D1888180958883FF9151
:10031000EF91DF91CF91BF91AF919F918F917F919D
:100320006F915F914F913F912F910F900BBE0F9066
:100330000FBE0F901F9018959ADFFFCFCF92EF92CC
:100340000F9387E0C82E96E0E92E05E024E049E00F
:1003500068E08EE092E011D20F91EF90CF90089577
:1003600080E090E008950895CF92DF92EF92FF929F
:100370000F931F93CF93DF936C017A018B01C0E041
:10038000D0E0CE15DF0581F0D8016D918D01D60149
:10039000ED91FC910190F081E02DC6011995892B1A
:1003A00011F02196EECF7E01C701DF91CF911F9111
:1003B0000F91FF90EF90DF90CF9008956115710538
:1003C00079F0FB0101900020E9F73197AF01461B5E
:1003D000570BDC01ED91FC910280F381E02D199423
:1003E00080E090E00895DC01ED91FC910190F081B6
:1003F000E02D19948F929F92AF92BF92EF92FF924D
:100400000F931F93CF93DF93CDB7DEB7A1970FB6AE
:10041000F894DEBF0FBECDBF7C01FA01CB0119A25B
:10042000223008F42AE08E010F5D1F4F822E912C9E
:10043000A12CB12CBF01A5019401D7D2F901CA01A9
:10044000015011096A3010F4605D01C0695CD80187
:100450006C93232B242B252B69F7B801C701AEDF42
:10046000A1960FB6F894DEBF0FBECDBFDF91CF913E
:100470001F910F91FF90EF90BF90AF909F908F9042
:100480000895CF92DF92EF92FF920F931F93CF9335
:10049000DF932115310581F4DC01ED91FC91019090
:1004A000F081E02D642FDF91CF911F910F91FF908C
:1004B000EF90DF90CF9019942A303105F1F477FF57
:1004C0001BC06A017B01EC016DE28DDF8C014427CA
:1004D0005527BA014C195D096E097F092AE0CE0142
:1004E00089DF800F911FDF91CF911F910F91FF90B6
:1004F000EF90DF90CF9008952AE0DF91CF911F9188
:100500000F91FF90EF90DF90CF9074CF9A01AB01E5
:10051000770F660B770BB5CFCF93DF93EC0160E0DD
:100520008E8135D281E090E096D161E08E812FD22C
:1005300081E090E090D160E08E8129D284E690E065
:10054000DF91CF9188C1CF92DF92EF92FF920F930C
:100550001F93CF93DF936C017C0187E0E80EF11CC1
:10056000C0E0D0E0062F10E0B8010C2E02C0759557
:1005700067950A94E2F76170F70181917F0107D2D4
:100580002196C430D10581F7C601DF91CF911F912B
:100590000F91FF90EF90DF90CF90BECFCF92DF9280
:1005A000EF92FF920F931F93CF93DF936C017C0127
:1005B00087E0E80EF11CC0E0D0E0062F10E0B801A3
:1005C0000C2E02C0759567950A94E2F76170F701E9
:1005D00081917F01DCD12196C830D10581F7C60118
:1005E000DF91CF911F910F91FF90EF90DF90CF900F
:1005F00093CF1F93CF93DF93EC01162F642F8C8141
:10060000C6D18D818F3F11F060E0C1D18F85612F00
:1006100084FF05C0CE01DF91CF911F91BFCF70E065
:1006200084E0759567958A95E1F7CE018CDF612F9F
:10063000CE01DF91CF911F9186CF40E0DACF61E00C
:10064000FCDF80ED97E007C162E0F7DF80ED97E027
:1006500002C1FC016089262F2460208B6C60EDCFE5
:10066000EF92FF920F931F93CF93DF93EC014230F1
:1006700018F08F8588608F874B8B1C8A80E48D8B68
:100680006E8B70E0605C7F4F6F8B222329F04130CE
:1006900019F48F8584608F8761E08C813CD18D81D6
:1006A0008F3F11F061E037D161E08E8134D17E015E
:1006B00087E0E80EF11C00E010E08F8584FD03C0A8
:1006C00084E090E002C088E090E00817190744F445
:1006D00061E0F70181917F011ED10F5F1F4FEDCFC8
:1006E00080E593ECB8D060E08C8151D160E08E81E0
:1006F0004ED18D818F3F11F060E049D16F8564FD4F
:1007000016C063E0CE011FDF84E991E1A4D063E06D
:10071000CE0119DF84E991E19ED063E0CE0113DFC1
:1007200086E990E098D062E0CE010DDF11C06062F2
:10073000CE0183DF84E991E18ED06F856062CE01C6
:100740007CDF86E990E087D06F856062CE0175DF3F
:100750006F856062CE0171DF84E0888BCE0179DF26
:10076000CE016DDF82E0898B66E0CE01DF91CF9113
:100770001F910F91FF90EF9060CFCF92EF920F9368
:10078000FC011382128284E092E09183808364836F
:100790008FEF8583468327830087E186C286138691
:1007A000148615861686178620E041E060E1CF01A9
:1007B0000F91EF90CF9054CF41E01BDF81E090E0AC
:1007C00008951F920F920FB60F9211242F933F930B
:1007D0008F939F93AF93BF938091270290912802AC
:1007E000A0912902B0912A023091260223E0230F22
:1007F0002D3720F40196A11DB11D05C026E8230F59
:100800000296A11DB11D209326028093270290938A
:100810002802A0932902B0932A0280912B02909182
:100820002C02A0912D02B0912E020196A11DB11DA6
:1008300080932B0290932C02A0932D02B0932E0252
:10084000BF91AF919F918F913F912F910F900FBECC
:100850000F901F9018958230910538F0880F991FDE
:10086000880F991F05970197F1F7089590E0FC0113
:100870003197E231F10508F04DC08827EE58FF4F5F
:100880008F4FD5C0809180008F7703C0809180000A
:100890008F7D80938000089580918000877FF9CFBD
:1008A00084B58F7702C084B58F7D84BD0895809113
:1008B000B0008F7703C08091B0008F7D8093B0002F
:1008C0000895809190008F7707C0809190008F7D70
:1008D00003C080919000877F80939000089580915D
:1008E000A0008F7707C08091A0008F7D03C080910A
:1008F000A000877F8093A0000895809120018F77CA
:1009000007C0809120018F7D03C080912001877FE7
:10091000809320010895CF93DF9390E0FC01E25B88
:10092000FE4F2491FC01EC56FE4F8491882361F127
:1009300090E0880F991FFC01EC50FE4FC591D491B7
:10094000FC01E652FE4FA591B491611109C09FB719
:10095000F8948881209582238883EC912E230BC004
:10096000623061F49FB7F8948881322F30958323E9
:100970008883EC912E2B2C939FBF06C08FB7F894E1
:10098000E8812E2B28838FBFDF91CF9108951F938D
:10099000CF93DF93282F30E0F901E85FFE4F849179
:1009A000F901E25BFE4FD491F901EC56FE4FC49180
:1009B000CC23B9F0162F811159DFEC2FF0E0EE0FA8
:1009C000FF1FE652FE4FA591B4919FB7F894111105
:1009D00004C08C91D095D82302C0EC91DE2BDC931F
:1009E0009FBFDF91CF911F910895A1E21A2EAA1BFC
:1009F000BB1BFD010DC0AA1FBB1FEE1FFF1FA217CF
:100A0000B307E407F50720F0A21BB30BE40BF50BCB
:100A1000661F771F881F991F1A9469F76095709554
:100A2000809590959B01AC01BD01CF010895EE0F1B
:100A3000FF1F881F8BBF0790F691E02D1994F89443
:020A4000FFCFE6
:0C0A420000000000DC03B401B001B301AF
:00000001FF
