:1000000071C0000081C000007FC000007DC0000002
:100010007BC0000079C0000077C0000075C0000000
:1000200073C0000071C000006FC000006DC0000010
:100030006BC0000069C0000067C0000065C0000020
:1000400063C0000061C000005FC000005DC0000030
:100050005BC0000059C0000057C0000055C0000040
:1000600053C0000051C000004FC000004DC0000050
:100070004BC0000049C0000047C0000045C0000060
:1000800043C0000041C000003FC000003DC0000070
:100090003BC0000039C0000037C0000035C0000080
:1000A00033C0000031C000002FC000002DC0000090
:1000B0002BC0000029C0000027C0000025C00000A0
:1000C00023C0000021C000001FC000001DC00000B0
:1000D0001BC0000019C0000017C0000015C00000C0
:1000E00013C0000011241FBECFEFD1E2DEBFCDBF91
:1000F00000E00CBF26E0A0E0B2E001C01D92A431F8
:10010000B207E1F757D15EC17BCF0F921F922F92BA
:100110003F924F925F926F927F928F929F92AF9297
:10012000BF92CF92DF92EF92FF920F931F932F9384
:100130003F934F935F936F937F938F939F93AF936F
:10014000BF93CF93DF93EF93FF93FCB7FF930FB76A
:100150000F93E0911206F0911306CDB7DEB7C1936D
:10016000D1935CD0E0911206F0911306C191D19128
:10017000CDBFDEBFFF91FFBFFF91FCBFFF91EF91AD
:10018000DF91CF91BF91AF919F918F917F916F91AF
:100190005F914F913F912F911F910F91FF90EF90A1
:1001A000DF90CF90BF90AF909F908F907F906F9097
:1001B0005F904F903F902F901F900F9008958091E7
:1001C000020290910302892B49F0F894E091120603
:1001D000F0911306EE5FFE4F1082C3CF0895FC012D
:1001E000329620E031E0DF01A9011D9241505040DC
:1001F000E1F7E150FF4F2FED30E02083319730835E
:1002000031976083319770839C0124523F4FDC010A
:100210002D933C93349621E02083089523E031E030
:100220008091040290910502829FF001839FF00D5E
:10023000929FF00D1124E85FFC4F8081813061F0C6
:100240008091040290910502019683709927909302
:10025000050280930402E4CF40910402509105020C
:1002600023E031E0429FC001439F900D529F900DCB
:1002700011248A5F9D4F9093130680931206FC0110
:10028000EE5FFE4F22E020838091040290910502F0
:100290000196837099279093050280930402089534
:1002A00010920102109200021092030210920202B8
:1002B0001092050210920402E6E0F2E083E091E081
:1002C000DF019C011D9221503040E1F7DF01AE5F5C
:1002D000BE4F1C92ED5FFE4F36E0E231F30781F72F
:1002E00008958091020290910302892B71F480910C
:1002F000000290910102892B41F0F89481E090E096
:1003000090930302809302022CCF0895F8942091D9
:100310000002309101022430310521F1E8E0F3E0E0
:1003200020E030E04081442339F02F5F3F4FED5F04
:10033000FE4F24303105B1F7BC018091000290914D
:1003400001020196909301028093000243E051E084
:10035000249FC001259F900D349F900D11248A5F2A
:100360009D4F3DDF789408958091020290910302A1
:10037000892B59F0F894E0911206F0911306EE5F84
:10038000FE4F81E08083C1DE78940895CFEFC5B938
:1003900080E09DE70197F1F715B8E6DFF8CFCFEFE2
:1003A000C0930B0180E09DE70197F1F710920B01DC
:1003B000DBDFF6CF75DF8FEC91E0A8DF86EC91E014
:0803C000A5DF8FCFF894FFCFF9
:00000001FF
